{
  "contractName": "ConvertLib",
  "abi": [
    {
      "inputs": [
        {
          "internalType": "uint256",
          "name": "amount",
          "type": "uint256"
        },
        {
          "internalType": "uint256",
          "name": "conversionRate",
          "type": "uint256"
        }
      ],
      "name": "convert",
      "outputs": [
        {
          "internalType": "uint256",
          "name": "convertedAmount",
          "type": "uint256"
        }
      ],
      "stateMutability": "pure",
      "type": "function",
      "constant": true
    }
  ],
  "bytecode": "0x610122610053600b82828239805160001a607314610046577f4e487b7100000000000000000000000000000000000000000000000000000000600052600060045260246000fd5b30600052607381538281f3fe7300000000000000000000000000000000000000003014608060405260043610604f577c0100000000000000000000000000000000000000000000000000000000600035046396e4ee3d81146054575b600080fd5b6063605f3660046086565b6075565b60405190815260200160405180910390f35b6000607f828460a7565b9392505050565b60008060408385031215609857600080fd5b50508035926020909101359150565b600081600019048311821515161560e7577f4e487b7100000000000000000000000000000000000000000000000000000000600052601160045260246000fd5b50029056fea2646970667358221220ee8caff64d5f351477563e382f38839bf86aac8f9828ea16d8b7cb2ab6740c6464736f6c63430008090033",
  "immutableReferences": {},
  "source": "// SPDX-License-Identifier: MIT\npragma solidity 0.8.9;\n\nlibrary ConvertLib {\n    function convert(uint256 amount, uint256 conversionRate)\n        public\n        pure\n        returns (uint256 convertedAmount)\n    {\n        return amount * conversionRate;\n    }\n}\n",
  "sourcePath": "/home/lumunge/Documents/WEB3/EthereumBoilers/ethereum-nextjs-boilerplate/Truffle/contracts/ConvertLib.sol",
  "compiler": {
    "name": "solc",
    "version": "0.8.9+commit.e5eed63a.Emscripten.clang"
  },
  "schemaVersion": "3.4.9",
  "updatedAt": "2022-08-23T09:13:52.581Z",
  "networkType": "ethereum",
  "devdoc": {
    "kind": "dev",
    "methods": {},
    "version": 1
  },
  "userdoc": {
    "kind": "user",
    "methods": {},
    "version": 1
  }
}