{
  "contractName": "JamiiFactory",
  "abi": [
    {
      "anonymous": false,
      "inputs": [
        {
          "indexed": false,
          "internalType": "uint8",
          "name": "version",
          "type": "uint8"
        }
      ],
      "name": "Initialized",
      "type": "event"
    },
    {
      "anonymous": false,
      "inputs": [
        {
          "indexed": true,
          "internalType": "address",
          "name": "previousOwner",
          "type": "address"
        },
        {
          "indexed": true,
          "internalType": "address",
          "name": "newOwner",
          "type": "address"
        }
      ],
      "name": "OwnershipTransferred",
      "type": "event"
    },
    {
      "anonymous": false,
      "inputs": [
        {
          "indexed": false,
          "internalType": "address",
          "name": "_voter",
          "type": "address"
        }
      ],
      "name": "assigned_voting_rights",
      "type": "event"
    },
    {
      "anonymous": false,
      "inputs": [
        {
          "indexed": false,
          "internalType": "uint256",
          "name": "_ballot_type",
          "type": "uint256"
        }
      ],
      "name": "created_ballot",
      "type": "event"
    },
    {
      "anonymous": false,
      "inputs": [
        {
          "indexed": false,
          "internalType": "string",
          "name": "_ballot_id",
          "type": "string"
        }
      ],
      "name": "ended_ballot",
      "type": "event"
    },
    {
      "anonymous": false,
      "inputs": [
        {
          "indexed": false,
          "internalType": "bytes32",
          "name": "_voter_unique_id",
          "type": "bytes32"
        }
      ],
      "name": "registered_voter",
      "type": "event"
    },
    {
      "anonymous": false,
      "inputs": [
        {
          "indexed": false,
          "internalType": "bool",
          "name": "_tie",
          "type": "bool"
        }
      ],
      "name": "tied_ballot",
      "type": "event"
    },
    {
      "anonymous": false,
      "inputs": [
        {
          "indexed": true,
          "internalType": "address",
          "name": "_candidate",
          "type": "address"
        }
      ],
      "name": "voted",
      "type": "event"
    },
    {
      "inputs": [],
      "name": "owner",
      "outputs": [
        {
          "internalType": "address",
          "name": "",
          "type": "address"
        }
      ],
      "stateMutability": "view",
      "type": "function",
      "constant": true
    },
    {
      "inputs": [],
      "name": "renounceOwnership",
      "outputs": [],
      "stateMutability": "nonpayable",
      "type": "function"
    },
    {
      "inputs": [
        {
          "internalType": "address",
          "name": "newOwner",
          "type": "address"
        }
      ],
      "name": "transferOwnership",
      "outputs": [],
      "stateMutability": "nonpayable",
      "type": "function"
    },
    {
      "inputs": [
        {
          "internalType": "string",
          "name": "_arbitrary_text",
          "type": "string"
        }
      ],
      "name": "initialize",
      "outputs": [],
      "stateMutability": "nonpayable",
      "type": "function"
    },
    {
      "inputs": [
        {
          "internalType": "uint256",
          "name": "_ballot_type",
          "type": "uint256"
        },
        {
          "internalType": "string",
          "name": "_ballot_name",
          "type": "string"
        }
      ],
      "name": "create_ballot_type",
      "outputs": [],
      "stateMutability": "nonpayable",
      "type": "function"
    },
    {
      "inputs": [
        {
          "internalType": "string",
          "name": "_ballot_id",
          "type": "string"
        },
        {
          "internalType": "string",
          "name": "_ballot_name",
          "type": "string"
        },
        {
          "internalType": "address[]",
          "name": "_ballot_candidates_addr",
          "type": "address[]"
        },
        {
          "internalType": "uint256",
          "name": "_ballot_type",
          "type": "uint256"
        },
        {
          "internalType": "uint256",
          "name": "_days",
          "type": "uint256"
        },
        {
          "internalType": "uint256",
          "name": "_registration_period",
          "type": "uint256"
        }
      ],
      "name": "create_ballot",
      "outputs": [],
      "stateMutability": "payable",
      "type": "function",
      "payable": true
    },
    {
      "inputs": [
        {
          "internalType": "uint256",
          "name": "_id_number",
          "type": "uint256"
        },
        {
          "internalType": "string",
          "name": "_ballot_id",
          "type": "string"
        }
      ],
      "name": "register_voter",
      "outputs": [
        {
          "internalType": "bytes32",
          "name": "",
          "type": "bytes32"
        }
      ],
      "stateMutability": "nonpayable",
      "type": "function"
    },
    {
      "inputs": [
        {
          "internalType": "address",
          "name": "_voter",
          "type": "address"
        },
        {
          "internalType": "string",
          "name": "_ballot_id",
          "type": "string"
        }
      ],
      "name": "assign_voting_rights",
      "outputs": [],
      "stateMutability": "nonpayable",
      "type": "function"
    },
    {
      "inputs": [
        {
          "internalType": "address",
          "name": "_candidate",
          "type": "address"
        },
        {
          "internalType": "string",
          "name": "_ballot_id",
          "type": "string"
        }
      ],
      "name": "vote",
      "outputs": [],
      "stateMutability": "nonpayable",
      "type": "function"
    },
    {
      "inputs": [
        {
          "internalType": "string",
          "name": "_ballot_id",
          "type": "string"
        }
      ],
      "name": "get_ballot",
      "outputs": [
        {
          "components": [
            {
              "internalType": "string",
              "name": "ballot_id",
              "type": "string"
            },
            {
              "internalType": "uint256",
              "name": "ballot_type",
              "type": "uint256"
            },
            {
              "internalType": "string",
              "name": "ballot_name",
              "type": "string"
            },
            {
              "internalType": "address",
              "name": "chair",
              "type": "address"
            },
            {
              "internalType": "uint256",
              "name": "voters_count",
              "type": "uint256"
            },
            {
              "internalType": "uint256",
              "name": "open_date",
              "type": "uint256"
            },
            {
              "internalType": "uint256",
              "name": "_days",
              "type": "uint256"
            },
            {
              "internalType": "bool",
              "name": "expired",
              "type": "bool"
            },
            {
              "internalType": "uint256",
              "name": "registration_window",
              "type": "uint256"
            },
            {
              "internalType": "address",
              "name": "current_winner",
              "type": "address"
            },
            {
              "internalType": "bool",
              "name": "tie",
              "type": "bool"
            }
          ],
          "internalType": "struct IJamiiFactory.Ballot",
          "name": "",
          "type": "tuple"
        }
      ],
      "stateMutability": "view",
      "type": "function",
      "constant": true
    },
    {
      "inputs": [
        {
          "internalType": "address",
          "name": "_candidate_addr",
          "type": "address"
        }
      ],
      "name": "get_candidate",
      "outputs": [
        {
          "components": [
            {
              "internalType": "uint256",
              "name": "candidate_id",
              "type": "uint256"
            },
            {
              "internalType": "string",
              "name": "ballot_id",
              "type": "string"
            },
            {
              "internalType": "address",
              "name": "candidate_address",
              "type": "address"
            },
            {
              "internalType": "uint256",
              "name": "vote_count",
              "type": "uint256"
            }
          ],
          "internalType": "struct IJamiiFactory.Candidate",
          "name": "",
          "type": "tuple"
        }
      ],
      "stateMutability": "view",
      "type": "function",
      "constant": true
    },
    {
      "inputs": [
        {
          "internalType": "address",
          "name": "_voter_address",
          "type": "address"
        }
      ],
      "name": "get_voter",
      "outputs": [
        {
          "components": [
            {
              "internalType": "uint256",
              "name": "voter_id",
              "type": "uint256"
            },
            {
              "internalType": "address",
              "name": "voter_address",
              "type": "address"
            },
            {
              "internalType": "string",
              "name": "ballot_id",
              "type": "string"
            },
            {
              "internalType": "bool",
              "name": "registered",
              "type": "bool"
            },
            {
              "internalType": "bool",
              "name": "rights",
              "type": "bool"
            },
            {
              "internalType": "bool",
              "name": "voted",
              "type": "bool"
            },
            {
              "internalType": "bytes32",
              "name": "unique_voter_id",
              "type": "bytes32"
            }
          ],
          "internalType": "struct IJamiiFactory.Voter",
          "name": "",
          "type": "tuple"
        }
      ],
      "stateMutability": "view",
      "type": "function",
      "constant": true
    },
    {
      "inputs": [
        {
          "internalType": "string",
          "name": "_ballot_id",
          "type": "string"
        }
      ],
      "name": "get_candidates",
      "outputs": [
        {
          "internalType": "address[]",
          "name": "",
          "type": "address[]"
        }
      ],
      "stateMutability": "view",
      "type": "function",
      "constant": true
    },
    {
      "inputs": [
        {
          "internalType": "string",
          "name": "_ballot_id",
          "type": "string"
        }
      ],
      "name": "get_voters",
      "outputs": [
        {
          "internalType": "address[]",
          "name": "",
          "type": "address[]"
        }
      ],
      "stateMutability": "view",
      "type": "function",
      "constant": true
    },
    {
      "inputs": [
        {
          "internalType": "string",
          "name": "_ballot_id",
          "type": "string"
        }
      ],
      "name": "get_winner",
      "outputs": [
        {
          "internalType": "address",
          "name": "",
          "type": "address"
        }
      ],
      "stateMutability": "nonpayable",
      "type": "function"
    },
    {
      "inputs": [
        {
          "internalType": "string",
          "name": "_ballot_id",
          "type": "string"
        }
      ],
      "name": "end_ballot",
      "outputs": [],
      "stateMutability": "nonpayable",
      "type": "function"
    },
    {
      "inputs": [],
      "name": "withdraw",
      "outputs": [],
      "stateMutability": "nonpayable",
      "type": "function"
    }
  ],
  "bytecode": "0x662386f26fc1000060065561012060405260006080908152600160a052600260c052600360e0526004610100526200003c906009906005620000dc565b50600954600a553480156200005057600080fd5b5062000077620000686401000000006200007d810204565b64010000000062000081810204565b62000148565b3390565b60008054600160a060020a03838116620100008181026201000060b060020a0319851617855560405193049190911692909183917f8be0079c531659141344cd1fd0a4f28419497f9722a3daafe3b4186f6b6457e091a35050565b8280548282559060005260206000209081019282156200011f579160200282015b828111156200011f578251829060ff16905591602001919060010190620000fd565b506200012d92915062000131565b5090565b5b808211156200012d576000815560010162000132565b6156fa80620001586000396000f3fe60806040526004361061011b576000357c01000000000000000000000000000000000000000000000000000000009004806389212d44116100b2578063e812c6f411610081578063e812c6f4146102d8578063e8636516146102f8578063f2fde38b14610326578063f62d188814610346578063f9efac791461036657600080fd5b806389212d441461023a5780638da5cb5b14610267578063953ef76d1461028b578063adbdbc97146102b857600080fd5b80633ccfd60b116100ee5780633ccfd60b146101dd578063697319d7146101f25780636cd5d44214610212578063715018a61461022557600080fd5b8063143b02f21461012057806316397337146101565780631bf533a41461018e5780633a99495e146101b0575b600080fd5b34801561012c57600080fd5b5061014061013b3660046150e4565b610386565b60405161014d9190615121565b60405180910390f35b34801561016257600080fd5b506101766101713660046150e4565b610605565b604051600160a060020a03909116815260200161014d565b34801561019a57600080fd5b506101ae6101a936600461518a565b610b05565b005b3480156101bc57600080fd5b506101d06101cb3660046150e4565b61116f565b60405161014d9190615234565b3480156101e957600080fd5b506101ae6115a9565b3480156101fe57600080fd5b506101ae61020d36600461518a565b6115ee565b6101ae610220366004615306565b6119cd565b34801561023157600080fd5b506101ae611e80565b34801561024657600080fd5b5061025a610255366004615413565b611e94565b60405161014d9190615435565b34801561027357600080fd5b50600054620100009004600160a060020a0316610176565b34801561029757600080fd5b506102ab6102a6366004615413565b6121e5565b60405161014d91906154a9565b3480156102c457600080fd5b506101ae6102d33660046154f8565b612506565b3480156102e457600080fd5b506101ae6102f33660046150e4565b6125cf565b34801561030457600080fd5b506103186103133660046154f8565b612717565b60405190815260200161014d565b34801561033257600080fd5b506101ae610341366004615413565b612d69565b34801561035257600080fd5b506101ae6103613660046150e4565b612df9565b34801561037257600080fd5b506101406103813660046150e4565b612f1d565b6060816000600b8260405161039b9190615529565b9081526020016040518091039020604051806101600160405290816000820180546103c590615545565b80601f01602080910402602001604051908101604052809291908181526020018280546103f190615545565b801561043e5780601f106104135761010080835404028352916020019161043e565b820191906000526020600020905b81548152906001019060200180831161042157829003601f168201915b505050505081526020016001820154815260200160028201805461046190615545565b80601f016020809104026020016040519081016040528092919081815260200182805461048d90615545565b80156104da5780601f106104af576101008083540402835291602001916104da565b820191906000526020600020905b8154815290600101906020018083116104bd57829003601f168201915b5050509183525050600382810154600160a060020a03908116602080850191909152600485015460408501526005850154606085015260068501546080850152600785015460ff908116151560a0860152600886015460c086015260099095015491821660e085015260a060020a909104909316151561010090920191909152908201519192501161058a5760405160e560020a62461bcd02815260040161058190615583565b60405180910390fd5b600d8460405161059a9190615529565b90815260408051918290036020908101832080548083028501830190935282845291908301828280156105f657602002820191906000526020600020905b8154600160a060020a031681526001909101906020018083116105d8575b505050505092505b5050919050565b6000816000600b8260405161061a9190615529565b90815260200160405180910390206040518061016001604052908160008201805461064490615545565b80601f016020809104026020016040519081016040528092919081815260200182805461067090615545565b80156106bd5780601f10610692576101008083540402835291602001916106bd565b820191906000526020600020905b8154815290600101906020018083116106a057829003601f168201915b50505050508152602001600182015481526020016002820180546106e090615545565b80601f016020809104026020016040519081016040528092919081815260200182805461070c90615545565b80156107595780601f1061072e57610100808354040283529160200191610759565b820191906000526020600020905b81548152906001019060200180831161073c57829003601f168201915b5050509183525050600382810154600160a060020a03908116602080850191909152600485015460408501526005850154606085015260068501546080850152600785015460ff908116151560a0860152600886015460c086015260099095015491821660e085015260a060020a90910490931615156101009092019190915290820151919250116108005760405160e560020a62461bcd02815260040161058190615583565b6000600b856040516108129190615529565b90815260200160405180910390206040518061016001604052908160008201805461083c90615545565b80601f016020809104026020016040519081016040528092919081815260200182805461086890615545565b80156108b55780601f1061088a576101008083540402835291602001916108b5565b820191906000526020600020905b81548152906001019060200180831161089857829003601f168201915b50505050508152602001600182015481526020016002820180546108d890615545565b80601f016020809104026020016040519081016040528092919081815260200182805461090490615545565b80156109515780601f1061092657610100808354040283529160200191610951565b820191906000526020600020905b81548152906001019060200180831161093457829003601f168201915b50505091835250506003820154600160a060020a039081166020830152600483015460408301526005830154606083015260068301546080830152600783015460ff908116151560a080850191909152600885015460c085015260099094015491821660e084015260a060020a90910416151561010090910152810151909150600090601890603c9081906109e690426155d3565b6109f091906155ea565b6109fa91906155ea565b610a0491906155ea565b90506000600160a060020a0316600b87604051610a219190615529565b90815260405190819003602001902060090154600160a060020a031614801590610a4e57508160c0015181115b610a9d5760405160e560020a62461bcd02815260206004820152601660248201527f4572726f722047657474696e672057696e6e65722121000000000000000000006044820152606401610581565b610140820151151560011415610af8577faf9c5487a5254285c7e0cb270c5884fb3c73e8bf058e80fc0cf380dc6908fac6826101400151604051610ae5911515815260200190565b60405180910390a16000945050506105fe565b50610120015192506105fe565b81816000600b82604051610b199190615529565b908152602001604051809103902060405180610160016040529081600082018054610b4390615545565b80601f0160208091040260200160405190810160405280929190818152602001828054610b6f90615545565b8015610bbc5780601f10610b9157610100808354040283529160200191610bbc565b820191906000526020600020905b815481529060010190602001808311610b9f57829003601f168201915b5050505050815260200160018201548152602001600282018054610bdf90615545565b80601f0160208091040260200160405190810160405280929190818152602001828054610c0b90615545565b8015610c585780601f10610c2d57610100808354040283529160200191610c58565b820191906000526020600020905b815481529060010190602001808311610c3b57829003601f168201915b5050509183525050600382810154600160a060020a0390811660208085019190915260048501546040808601919091526005860154606086015260068601546080860152600786015460ff908116151560a0870152600887015460c087015260099096015492831660e086015260a060020a9092048516151561010090940193909352336000908152600f90935290912001549192501615156001148015610de357503360009081526011602090815260408083208054825181850281018501909352808352610de19492939192909184015b82821015610dd7578382906000526020600020018054610d4a90615545565b80601f0160208091040260200160405190810160405280929190818152602001828054610d7690615545565b8015610dc35780601f10610d9857610100808354040283529160200191610dc3565b820191906000526020600020905b815481529060010190602001808311610da657829003601f168201915b505050505081526020019060010190610d2b565b5050505083612f97565b155b8015610ea15750610e9b600b83604051610dfd9190615529565b9081526040519081900360200190208054610e1790615545565b80601f0160208091040260200160405190810160405280929190818152602001828054610e4390615545565b8015610e905780601f10610e6557610100808354040283529160200191610e90565b820191906000526020600020905b815481529060010190602001808311610e7357829003601f168201915b505050505083612ffd565b15156001145b8015610eaf575060e0810151155b8015610ee75750600160a060020a0383166000908152600e602052604090206001018054610ee19190610e1790615545565b15156001145b610f365760405160e560020a62461bcd02815260206004820152600c60248201527f566f746572204572726f722100000000000000000000000000000000000000006044820152606401610581565b6000600b85604051610f489190615529565b908152602001604051809103902060405180610160016040529081600082018054610f7290615545565b80601f0160208091040260200160405190810160405280929190818152602001828054610f9e90615545565b8015610feb5780601f10610fc057610100808354040283529160200191610feb565b820191906000526020600020905b815481529060010190602001808311610fce57829003601f168201915b505050505081526020016001820154815260200160028201805461100e90615545565b80601f016020809104026020016040519081016040528092919081815260200182805461103a90615545565b80156110875780601f1061105c57610100808354040283529160200191611087565b820191906000526020600020905b81548152906001019060200180831161106a57829003601f168201915b50505091835250506003820154600160a060020a03908116602080840191909152600484015460408401526005840154606084015260068401546080840152600784015460ff908116151560a0850152600885015460c085015260099094015491821660e084015260a060020a90910490921615156101009091015281015190915061111c576111178686613064565b611133565b8060200151600114156111335761113386866135db565b33600090815260116020908152604082208054600181018255908352918190208751611166939190910191880190614f3c565b50505050505050565b6111e26040518061016001604052806060815260200160008152602001606081526020016000600160a060020a03168152602001600081526020016000815260200160008152602001600015158152602001600081526020016000600160a060020a031681526020016000151581525090565b816000600b826040516111f59190615529565b90815260200160405180910390206040518061016001604052908160008201805461121f90615545565b80601f016020809104026020016040519081016040528092919081815260200182805461124b90615545565b80156112985780601f1061126d57610100808354040283529160200191611298565b820191906000526020600020905b81548152906001019060200180831161127b57829003601f168201915b50505050508152602001600182015481526020016002820180546112bb90615545565b80601f01602080910402602001604051908101604052809291908181526020018280546112e790615545565b80156113345780601f1061130957610100808354040283529160200191611334565b820191906000526020600020905b81548152906001019060200180831161131757829003601f168201915b5050509183525050600382810154600160a060020a03908116602080850191909152600485015460408501526005850154606085015260068501546080850152600785015460ff908116151560a0860152600886015460c086015260099095015491821660e085015260a060020a90910490931615156101009092019190915290820151919250116113db5760405160e560020a62461bcd02815260040161058190615583565b600b846040516113eb9190615529565b90815260200160405180910390206040518061016001604052908160008201805461141590615545565b80601f016020809104026020016040519081016040528092919081815260200182805461144190615545565b801561148e5780601f106114635761010080835404028352916020019161148e565b820191906000526020600020905b81548152906001019060200180831161147157829003601f168201915b50505050508152602001600182015481526020016002820180546114b190615545565b80601f01602080910402602001604051908101604052809291908181526020018280546114dd90615545565b801561152a5780601f106114ff5761010080835404028352916020019161152a565b820191906000526020600020905b81548152906001019060200180831161150d57829003601f168201915b50505091835250506003820154600160a060020a039081166020830152600483015460408301526005830154606083015260068301546080830152600783015460ff908116151560a0840152600884015460c084015260099093015490811660e083015260a060020a9004909116151561010090910152949350505050565b6115b1613cd7565b600154604051600160a060020a0390911690303180156108fc02916000818181858888f193505050501580156115eb573d6000803e3d6000fd5b50565b6000600b826040516116009190615529565b90815260200160405180910390206040518061016001604052908160008201805461162a90615545565b80601f016020809104026020016040519081016040528092919081815260200182805461165690615545565b80156116a35780601f10611678576101008083540402835291602001916116a3565b820191906000526020600020905b81548152906001019060200180831161168657829003601f168201915b50505050508152602001600182015481526020016002820180546116c690615545565b80601f01602080910402602001604051908101604052809291908181526020018280546116f290615545565b801561173f5780601f106117145761010080835404028352916020019161173f565b820191906000526020600020905b81548152906001019060200180831161172257829003601f168201915b50505091835250506003820154600160a060020a0390811660208084019190915260048401546040840152600584015460608085019190915260068501546080850152600785015460ff908116151560a0860152600886015460c086015260099095015480841660e086015260a060020a90049094161515610100909301929092529083015191830151929350909116331480156117e257506001826080015110155b80156117f0575060e0820151155b80156118ac5750600160a060020a0384166000908152600f6020526040902060020180546118a6919061182290615545565b80601f016020809104026020016040519081016040528092919081815260200182805461184e90615545565b801561189b5780601f106118705761010080835404028352916020019161189b565b820191906000526020600020905b81548152906001019060200180831161187e57829003601f168201915b505050505084612ffd565b15156001145b80156118d85750600160a060020a0384166000908152600f602052604090206003015460ff1615156001145b80156119055750600160a060020a0384166000908152600f6020526040902060030154610100900460ff16155b80156119115750806001145b8061191c5750806003145b61196b5760405160e560020a62461bcd02815260206004820152601e60248201527f4572726f722041737369676e696e6720566f74696e67205269676874732100006044820152606401610581565b600160a060020a0384166000818152600f6020908152604091829020600301805461ff00191661010017905590519182527f94055e6bcdfa83fa1f2cb2901fd22db9e96f758348742a662b752bc32b765800910160405180910390a150505050565b600654859034108015906119e2575060008151115b80156119ef575060018551115b80156119fd5750600a548411155b8015611a0857508183115b8015611a145750600082115b611a635760405160e560020a62461bcd02815260206004820152601660248201527f4572726f722042616c6c6f74204372656174696f6e21000000000000000000006044820152606401610581565b84600c88604051611a749190615529565b90815260200160405180910390209080519060200190611a95929190614fc0565b50845160005b81811015611bae576000604051806080016040528060025481526020018b8152602001898481518110611ad057611ad061560f565b6020026020010151600160a060020a031681526020016000815250905080600e60008a8581518110611b0457611b0461560f565b6020026020010151600160a060020a0316600160a060020a03168152602001908152602001600020600082015181600001556020820151816001019080519060200190611b52929190614f3c565b50604082015160028281018054600160a060020a031916600160a060020a03909316929092179091556060909201516003909101558054906000611b9583615628565b9190505550508080611ba690615628565b915050611a9b565b506040805161016081018252898152602081018790528082018990523360608201526000608082018190524260a083015260c0820187905260e082018190526101008201869052610120820181905261014082015290518190600b90611c15908c90615529565b90815260200160405180910390206000820151816000019080519060200190611c3f929190614f3c565b50602082810151600183015560408301518051611c629260028501920190614f3c565b506060820151600382018054600160a060020a03928316600160a060020a0319909116179055608083015160048084019190915560a0840151600584015560c0840151600684015560e084015160078401805491151560ff1990921691909117905561010084015160088401556101208401516009909301805461014090950151151560a060020a0274ffffffffffffffffffffffffffffffffffffffffff199095169390921692909217929092179091558054600181018255600091909152815180518392600a027f8a35acfbc15ff81a39ae7d344fd709f28e8600b4aa8c65c6b64bfe7fe36bd19b0191611d5d91839160200190614f3c565b50602082810151600183015560408301518051611d809260028501920190614f3c565b506060820151600382018054600160a060020a031916600160a060020a039283161790556080830151600483015560a0830151600583015560c0830151600683015560e08301516007808401805460ff191692151592909217909155610100840151600884015561012084015160099093018054610140909501519390921674ffffffffffffffffffffffffffffffffffffffffff199094169390931760a060020a921515929092029190911790558054906000611e3d83615628565b90915550506040518681527f3302601c0b6ad9794207d2eb4a29c724db57c9348bf10dffcc98c9d89e6d9c529060200160405180910390a1505050505050505050565b611e88613cd7565b611e926000613d3b565b565b6040805160e08101825260008082526020820181905260609282018390529181018290526080810182905260a0810182905260c0810191909152604051806020016040528060008152506000600b82604051611ef09190615529565b908152602001604051809103902060405180610160016040529081600082018054611f1a90615545565b80601f0160208091040260200160405190810160405280929190818152602001828054611f4690615545565b8015611f935780601f10611f6857610100808354040283529160200191611f93565b820191906000526020600020905b815481529060010190602001808311611f7657829003601f168201915b5050505050815260200160018201548152602001600282018054611fb690615545565b80601f0160208091040260200160405190810160405280929190818152602001828054611fe290615545565b801561202f5780601f106120045761010080835404028352916020019161202f565b820191906000526020600020905b81548152906001019060200180831161201257829003601f168201915b5050509183525050600382810154600160a060020a03908116602080850191909152600485015460408501526005850154606085015260068501546080850152600785015460ff908116151560a0860152600886015460c086015260099095015491821660e085015260a060020a90910490931615156101009092019190915290820151919250116120d65760405160e560020a62461bcd02815260040161058190615583565b600160a060020a038085166000908152600f6020908152604091829020825160e08101845281548152600182015490941691840191909152600281018054919284019161212290615545565b80601f016020809104026020016040519081016040528092919081815260200182805461214e90615545565b801561219b5780601f106121705761010080835404028352916020019161219b565b820191906000526020600020905b81548152906001019060200180831161217e57829003601f168201915b5050509183525050600382015460ff808216151560208401526101008204811615156040840152620100009091041615156060820152600490910154608090910152949350505050565b612219604051806080016040528060008152602001606081526020016000600160a060020a03168152602001600081525090565b604051806020016040528060008152506000600b8260405161223b9190615529565b90815260200160405180910390206040518061016001604052908160008201805461226590615545565b80601f016020809104026020016040519081016040528092919081815260200182805461229190615545565b80156122de5780601f106122b3576101008083540402835291602001916122de565b820191906000526020600020905b8154815290600101906020018083116122c157829003601f168201915b505050505081526020016001820154815260200160028201805461230190615545565b80601f016020809104026020016040519081016040528092919081815260200182805461232d90615545565b801561237a5780601f1061234f5761010080835404028352916020019161237a565b820191906000526020600020905b81548152906001019060200180831161235d57829003601f168201915b5050509183525050600382810154600160a060020a03908116602080850191909152600485015460408501526005850154606085015260068501546080850152600785015460ff908116151560a0860152600886015460c086015260099095015491821660e085015260a060020a90910490931615156101009092019190915290820151919250116124215760405160e560020a62461bcd02815260040161058190615583565b600160a060020a0384166000908152600e602090815260409182902082516080810190935280548352600181018054919284019161245e90615545565b80601f016020809104026020016040519081016040528092919081815260200182805461248a90615545565b80156124d75780601f106124ac576101008083540402835291602001916124d7565b820191906000526020600020905b8154815290600101906020018083116124ba57829003601f168201915b50505091835250506002820154600160a060020a03166020820152600390910154604090910152949350505050565b61250e613cd7565b6001600a5461251d91906155d3565b821180156125375750600a54612534906001615643565b82105b6125865760405160e560020a62461bcd02815260206004820152601360248201527f496e76616c6964205479706520496e64657821000000000000000000000000006044820152606401610581565b6009600a5460016125979190615643565b8154600181018355600092835260208084209091019190915583825260038152604090912082516125ca92840190614f3c565b505050565b6000600b826040516125e19190615529565b9081526020016040518091039020905060006018603c8084600501544261260891906155d3565b61261291906155ea565b61261c91906155ea565b61262691906155ea565b905081600601548110801561264757506003820154600160a060020a031633145b6126965760405160e560020a62461bcd02815260206004820152601560248201527f4572726f7220456e64696e672042616c6c6f74212100000000000000000000006044820152606401610581565b60078201805460ff19166001908117909155604051600b906126b9908690615529565b908152604051908190036020018120600701805492151560ff19909316929092179091557f020b0a6e75f9b4e7936cf2c0aab0f37ee94d3aedf66a6b4540824b721c8bd5929061270a90859061565b565b60405180910390a1505050565b600082826000600b8260405161272d9190615529565b90815260200160405180910390206040518061016001604052908160008201805461275790615545565b80601f016020809104026020016040519081016040528092919081815260200182805461278390615545565b80156127d05780601f106127a5576101008083540402835291602001916127d0565b820191906000526020600020905b8154815290600101906020018083116127b357829003601f168201915b50505050508152602001600182015481526020016002820180546127f390615545565b80601f016020809104026020016040519081016040528092919081815260200182805461281f90615545565b801561286c5780601f106128415761010080835404028352916020019161286c565b820191906000526020600020905b81548152906001019060200180831161284f57829003601f168201915b50505091835250506003820154600160a060020a039081166020830152600483015460408301526005830154606083015260068301546080830152600783015460ff908116151560a080850191909152600885015460c085015260099094015491821660e084015260a060020a909104161515610100909101528101519091506000906128f990426155d3565b60045490915060018110801590612920575060c083015161291d906201518061566e565b82105b8015612a0f57503360009081526010602090815260408083208054825181850281018501909352808352612a0d9492939192909184015b82821015612a0357838290600052602060002001805461297690615545565b80601f01602080910402602001604051908101604052809291908181526020018280546129a290615545565b80156129ef5780601f106129c4576101008083540402835291602001916129ef565b820191906000526020600020905b8154815290600101906020018083116129d257829003601f168201915b505050505081526020019060010190612957565b5050505085612f97565b155b8015612afa5750612af860126000878152602001908152602001600020805480602002602001604051908101604052809291908181526020016000905b82821015612a03578382906000526020600020018054612a6b90615545565b80601f0160208091040260200160405190810160405280929190818152602001828054612a9790615545565b8015612ae45780601f10612ab957610100808354040283529160200191612ae4565b820191906000526020600020905b815481529060010190602001808311612ac757829003601f168201915b505050505081526020019060010190612a4c565b155b8015612b175750610100830151612b14906201518061566e565b82105b612b365760405160e560020a62461bcd0281526004016105819061568d565b6000600b88604051612b489190615529565b908152602001604051809103902060405180610160016040529081600082018054612b7290615545565b80601f0160208091040260200160405190810160405280929190818152602001828054612b9e90615545565b8015612beb5780601f10612bc057610100808354040283529160200191612beb565b820191906000526020600020905b815481529060010190602001808311612bce57829003601f168201915b5050505050815260200160018201548152602001600282018054612c0e90615545565b80601f0160208091040260200160405190810160405280929190818152602001828054612c3a90615545565b8015612c875780601f10612c5c57610100808354040283529160200191612c87565b820191906000526020600020905b815481529060010190602001808311612c6a57829003601f168201915b50505091835250506003820154600160a060020a03908116602080840191909152600484015460408401526005840154606084015260068401546080840152600784015460ff908116151560a0850152600885015460c085015260099094015491821660e084015260a060020a9091049092161515610100909101528101519091501580612d19575080602001516002145b15612d34576000612d2a8a8a613da3565b9750612d5e915050565b806020015160011480612d4b575080602001516003145b15612d5c576000612d2a8a8a6141d1565b505b505050505092915050565b612d71613cd7565b600160a060020a038116612df05760405160e560020a62461bcd02815260206004820152602660248201527f4f776e61626c653a206e6577206f776e657220697320746865207a65726f206160448201527f64647265737300000000000000000000000000000000000000000000000000006064820152608401610581565b6115eb81613d3b565b600054610100900460ff1615808015612e195750600054600160ff909116105b80612e335750303b158015612e33575060005460ff166001145b612ea85760405160e560020a62461bcd02815260206004820152602e60248201527f496e697469616c697a61626c653a20636f6e747261637420697320616c72656160448201527f647920696e697469616c697a65640000000000000000000000000000000000006064820152608401610581565b6000805460ff191660011790558015612ecb576000805461ff0019166101001790555b612ed36145f2565b8015612f19576000805461ff0019169055604051600181527f7f26b83ff96e1f2b6a682f133852f6798a09c465da95921460cefb38474024989060200160405180910390a15b5050565b6060600c82604051612f2f9190615529565b9081526040805191829003602090810183208054808302850183019093528284529190830182828015612f8b57602002820191906000526020600020905b8154600160a060020a03168152600190910190602001808311612f6d575b50505050509050919050565b8151600090815b81811015612ff057612fc9858281518110612fbb57612fbb61560f565b602002602001015185612ffd565b151560011415612fde57600192505050612ff7565b80612fe881615628565b915050612f9e565b5060009150505b92915050565b6000816040516020016130109190615529565b60405160208183030381529060405280519060200120836040516020016130379190615529565b60405160208183030381529060405280519060200120141561305b57506001612ff7565b50600092915050565b81816000600b826040516130789190615529565b9081526020016040518091039020604051806101600160405290816000820180546130a290615545565b80601f01602080910402602001604051908101604052809291908181526020018280546130ce90615545565b801561311b5780601f106130f05761010080835404028352916020019161311b565b820191906000526020600020905b8154815290600101906020018083116130fe57829003601f168201915b505050505081526020016001820154815260200160028201805461313e90615545565b80601f016020809104026020016040519081016040528092919081815260200182805461316a90615545565b80156131b75780601f1061318c576101008083540402835291602001916131b7565b820191906000526020600020905b81548152906001019060200180831161319a57829003601f168201915b5050509183525050600382810154600160a060020a0390811660208085019190915260048501546040808601919091526005860154606086015260068601546080860152600786015460ff908116151560a0870152600887015460c087015260099096015492831660e086015260a060020a9092048516151561010090940193909352336000908152600f90935290912001549192501615156001148015613338575033600090815260116020908152604080832080548251818502810185019093528083526133369492939192909184015b82821015610dd75783829060005260206000200180546132a990615545565b80601f01602080910402602001604051908101604052809291908181526020018280546132d590615545565b80156133225780601f106132f757610100808354040283529160200191613322565b820191906000526020600020905b81548152906001019060200180831161330557829003601f168201915b50505050508152602001906001019061328a565b155b80156133585750613352600b83604051610dfd9190615529565b15156001145b8015613366575060e0810151155b801561339e5750600160a060020a0383166000908152600e6020526040902060010180546133989190610e1790615545565b15156001145b6133ed5760405160e560020a62461bcd02815260206004820152600c60248201527f566f746572204572726f722100000000000000000000000000000000000000006044820152606401610581565b6000600b856040516133ff9190615529565b90815260200160405180910390206040518061016001604052908160008201805461342990615545565b80601f016020809104026020016040519081016040528092919081815260200182805461345590615545565b80156134a25780601f10613477576101008083540402835291602001916134a2565b820191906000526020600020905b81548152906001019060200180831161348557829003601f168201915b50505050508152602001600182015481526020016002820180546134c590615545565b80601f01602080910402602001604051908101604052809291908181526020018280546134f190615545565b801561353e5780601f106135135761010080835404028352916020019161353e565b820191906000526020600020905b81548152906001019060200180831161352157829003601f168201915b50505091835250506003820154600160a060020a039081166020830152600483015460408301526005830154606083015260068301546080830152600783015460ff908116151560a0840152600884015460c084015260099093015480821660e084015260a060020a9004909216151561010090910152871661012082015290506135c986826146ab565b506135d386614760565b505050505050565b81816000600b826040516135ef9190615529565b90815260200160405180910390206040518061016001604052908160008201805461361990615545565b80601f016020809104026020016040519081016040528092919081815260200182805461364590615545565b80156136925780601f1061366757610100808354040283529160200191613692565b820191906000526020600020905b81548152906001019060200180831161367557829003601f168201915b50505050508152602001600182015481526020016002820180546136b590615545565b80601f01602080910402602001604051908101604052809291908181526020018280546136e190615545565b801561372e5780601f106137035761010080835404028352916020019161372e565b820191906000526020600020905b81548152906001019060200180831161371157829003601f168201915b50505091835250506003820154600160a060020a0390811660208084019190915260048401546040808501919091526005850154606085015260068501546080850152600785015460ff908116151560a0860152600886015460c086015260099095015480841660e08087019190915260a060020a909104909516151561010090940193909352336000908152600f82528381208451958601855280548652600181015490931691850191909152600282018054959650909491928401916137f590615545565b80601f016020809104026020016040519081016040528092919081815260200182805461382190615545565b801561386e5780601f106138435761010080835404028352916020019161386e565b820191906000526020600020905b81548152906001019060200180831161385157829003601f168201915b5050509183525050600382015460ff808216151560208401526101008204811615156040840152620100009091041615156060820152600490910154608091820152810151909150151560011480156138de5750336000908152600f602052604090206003015460ff1615156001145b80156139cd575033600090815260116020908152604080832080548251818502810185019093528083526139cb9492939192909184015b828210156139c157838290600052602060002001805461393490615545565b80601f016020809104026020016040519081016040528092919081815260200182805461396090615545565b80156139ad5780601f10613982576101008083540402835291602001916139ad565b820191906000526020600020905b81548152906001019060200180831161399057829003601f168201915b505050505081526020019060010190613915565b5050505084612f97565b155b8015613a075750613a01600b846040516139e79190615529565b908152604051908190036020019020805461182290615545565b15156001145b8015613a3f5750600160a060020a0384166000908152600e602052604090206001018054613a39919061182290615545565b15156001145b613a8e5760405160e560020a62461bcd02815260206004820152601b60248201527f566f746572204572726f7228436c6f7365642042616c6c6f74292100000000006044820152606401610581565b6000600b86604051613aa09190615529565b908152602001604051809103902060405180610160016040529081600082018054613aca90615545565b80601f0160208091040260200160405190810160405280929190818152602001828054613af690615545565b8015613b435780601f10613b1857610100808354040283529160200191613b43565b820191906000526020600020905b815481529060010190602001808311613b2657829003601f168201915b5050505050815260200160018201548152602001600282018054613b6690615545565b80601f0160208091040260200160405190810160405280929190818152602001828054613b9290615545565b8015613bdf5780601f10613bb457610100808354040283529160200191613bdf565b820191906000526020600020905b815481529060010190602001808311613bc257829003601f168201915b50505091835250506003820154600160a060020a03908116602080840191909152600484015460408401526005840154606084015260068401546080840152600784015460ff908116151560a0850152600885015460c085015260099094015491821660e084015260a060020a909104909216151561010090910152810151909150600114613cb35760405160e560020a62461bcd02815260206004820152601260248201527f57726f6e672042616c6c6f7420547970652100000000000000000000000000006044820152606401610581565b600160a060020a038716610120820152613ccd87826146ab565b5061116687614760565b600054600160a060020a0362010000909104163314611e925760405160e560020a62461bcd02815260206004820181905260248201527f4f776e61626c653a2063616c6c6572206973206e6f7420746865206f776e65726044820152606401610581565b60008054600160a060020a038381166201000081810275ffffffffffffffffffffffffffffffffffffffff000019851617855560405193049190911692909183917f8be0079c531659141344cd1fd0a4f28419497f9722a3daafe3b4186f6b6457e091a35050565b600082826000600b82604051613db99190615529565b908152602001604051809103902060405180610160016040529081600082018054613de390615545565b80601f0160208091040260200160405190810160405280929190818152602001828054613e0f90615545565b8015613e5c5780601f10613e3157610100808354040283529160200191613e5c565b820191906000526020600020905b815481529060010190602001808311613e3f57829003601f168201915b5050505050815260200160018201548152602001600282018054613e7f90615545565b80601f0160208091040260200160405190810160405280929190818152602001828054613eab90615545565b8015613ef85780601f10613ecd57610100808354040283529160200191613ef8565b820191906000526020600020905b815481529060010190602001808311613edb57829003601f168201915b50505091835250506003820154600160a060020a039081166020830152600483015460408301526005830154606083015260068301546080830152600783015460ff908116151560a080850191909152600885015460c085015260099094015491821660e084015260a060020a90910416151561010090910152810151909150600090613f8590426155d3565b60045490915060018110801590613fac575060c0830151613fa9906201518061566e565b82105b80156140915750336000908152601060209081526040808320805482518185028101850190935280835261408f9492939192909184015b82821015612a0357838290600052602060002001805461400290615545565b80601f016020809104026020016040519081016040528092919081815260200182805461402e90615545565b801561407b5780601f106140505761010080835404028352916020019161407b565b820191906000526020600020905b81548152906001019060200180831161405e57829003601f168201915b505050505081526020019060010190613fe3565b155b801561417c575061417a60126000878152602001908152602001600020805480602002602001604051908101604052809291908181526020016000905b82821015612a035783829060005260206000200180546140ed90615545565b80601f016020809104026020016040519081016040528092919081815260200182805461411990615545565b80156141665780601f1061413b57610100808354040283529160200191614166565b820191906000526020600020905b81548152906001019060200180831161414957829003601f168201915b5050505050815260200190600101906140ce565b155b80156141995750610100830151614196906201518061566e565b82105b6141b85760405160e560020a62461bcd0281526004016105819061568d565b60006141c489896147e0565b9998505050505050505050565b600082826000600b826040516141e79190615529565b90815260200160405180910390206040518061016001604052908160008201805461421190615545565b80601f016020809104026020016040519081016040528092919081815260200182805461423d90615545565b801561428a5780601f1061425f5761010080835404028352916020019161428a565b820191906000526020600020905b81548152906001019060200180831161426d57829003601f168201915b50505050508152602001600182015481526020016002820180546142ad90615545565b80601f01602080910402602001604051908101604052809291908181526020018280546142d990615545565b80156143265780601f106142fb57610100808354040283529160200191614326565b820191906000526020600020905b81548152906001019060200180831161430957829003601f168201915b50505091835250506003820154600160a060020a039081166020830152600483015460408301526005830154606083015260068301546080830152600783015460ff908116151560a080850191909152600885015460c085015260099094015491821660e084015260a060020a909104161515610100909101528101519091506000906143b390426155d3565b600454909150600181108015906143da575060c08301516143d7906201518061566e565b82105b80156144bf575033600090815260106020908152604080832080548251818502810185019093528083526144bd9492939192909184015b82821015612a0357838290600052602060002001805461443090615545565b80601f016020809104026020016040519081016040528092919081815260200182805461445c90615545565b80156144a95780601f1061447e576101008083540402835291602001916144a9565b820191906000526020600020905b81548152906001019060200180831161448c57829003601f168201915b505050505081526020019060010190614411565b155b80156145aa57506145a860126000878152602001908152602001600020805480602002602001604051908101604052809291908181526020016000905b82821015612a0357838290600052602060002001805461451b90615545565b80601f016020809104026020016040519081016040528092919081815260200182805461454790615545565b80156145945780601f1061456957610100808354040283529160200191614594565b820191906000526020600020905b81548152906001019060200180831161457757829003601f168201915b5050505050815260200190600101906144fc565b155b80156145c757506101008301516145c4906201518061566e565b82105b6145e65760405160e560020a62461bcd0281526004016105819061568d565b60006141c48989614b33565b600054610100900460ff166146725760405160e560020a62461bcd02815260206004820152602b60248201527f496e697469616c697a61626c653a20636f6e7472616374206973206e6f74206960448201527f6e697469616c697a696e670000000000000000000000000000000000000000006064820152608401610581565b6103e8600255614680614c40565b6000546001805462010000909204600160a060020a0316600160a060020a0319909216919091179055565b610120810151600160a060020a039081166000908152600e6020526040808220600390810154938616835290822001549091906146e9906001615643565b111561470c57600160a060020a0383166101208301526000610140830152614755565b610120820151600160a060020a039081166000908152600e6020526040808220600390810154938716835291200154614746906001615643565b14156147555760016101408301525b506101400151919050565b600160a060020a0381166000908152600e6020526040812060030180549161478783615628565b9091555050336000908152600f6020526040808220600301805462ff000019166201000017905551600160a060020a038316917faec2ccae8681fd01ad220ecb7e9b5f7d485b1cc3cc01599acb1578016b30a6bd91a250565b600080600b836040516147f39190615529565b90815260200160405180910390209050600d836040516148139190615529565b90815260408051602092819003830181208054600181018255600091825284822001805433600160a060020a03199091161790559281018790520160408051808303601f19018152828252805160209182012060e08401835260048601548452338285018181528585018a815260016060880181905260808801819052600060a0890181905260c08901869052938452600f8652959092208651815590519481018054600160a060020a031916600160a060020a03909616959095179094555180519195508493926148ed92600285019290910190614f3c565b506060820151600382018054608085015160a08601511515620100000262ff0000199115156101000261ff00199515159590951661ffff1990931692909217939093179290921691909117905560c090910151600490910155600580546001810182556000829052825191027f036b6384b5eca791c62761152d0c79bb0604c104a5fb6f4eb0703f3154bb3db081019182556020808401517f036b6384b5eca791c62761152d0c79bb0604c104a5fb6f4eb0703f3154bb3db183018054600160a060020a03909216600160a060020a031990921691909117905560408401518051859493614a01937f036b6384b5eca791c62761152d0c79bb0604c104a5fb6f4eb0703f3154bb3db2909101920190614f3c565b506060820151600382018054608085015160a08601511515620100000262ff0000199115156101000261ff00199515159590951661ffff1990931692909217939093179290921691909117905560c090910151600490910155604051600b90614a6b908790615529565b9081526040519081900360200190206004018054906000614a8b83615628565b909155505033600090815260106020908152604082208054600181018255908352918190208751614ac3939190910191880190614f3c565b50600086815260126020908152604082208054600181018255908352918190208751614af6939190910191880190614f3c565b506040518281527fd850a8248df1456f35b1b26db099385cb363335bb60a8e99294bc101242678719060200160405180910390a150949350505050565b600080600b83604051614b469190615529565b90815260200160405180910390209050600d83604051614b669190615529565b90815260408051602092819003830181208054600181018255600091825284822001805433600160a060020a03199091161790559281018790520160408051808303601f19018152828252805160209182012060e08401835260048601548452338285018181528585018a815260016060880181905260006080890181905260a0890181905260c08901869052938452600f8652959092208651815590519481018054600160a060020a031916600160a060020a03909616959095179094555180519195508493926148ed92600285019290910190614f3c565b60408051808201909152600981527f6f70656e2d667265650000000000000000000000000000000000000000000000602080830191825260008052600390529051614cac917f3617319a054d772f909f7c479a2cebe5066e836a939412e32403c99029b92eff91614f3c565b5060408051808201909152600b81527f636c6f7365642d6672656500000000000000000000000000000000000000000060208083019182526001600052600390529051614d1a917fa15bc60c955c405d20d9149c709e2460f1c2d9a497496a7f46004d1772c3054c91614f3c565b5060408051808201909152600981527f6f70656e2d70616964000000000000000000000000000000000000000000000060208083019182526002600052600390529051614d88917fc3a24b0501bd2c13a7e57f2db4369ec4c223447539fc0724a9d55ac4a06ebd4d91614f3c565b5060408051808201909152600b81527f636c6f7365642d7061696400000000000000000000000000000000000000000060208083019182526003600081905290529051614df6917fcbc4e5fb02c3d1de23a9f1e014b4d2ee5aeaea9505df5e855c9210bf472495af91614f3c565b5060408051808201909152601281527f636c6f7365642d667265652d736563726574000000000000000000000000000060208083019182526004600052600390529051614e64917f83ec6a1f0257b830b5e016457c9cf1435391bf56cc98f369a58a54fe9377246591614f3c565b5060408051808201909152601081527f6f70656e2d706169642d7365637265740000000000000000000000000000000060208083019182526005600052600390529051614ed2917f405aad32e1adbac89bb7f176e338b8fc6e994ca210c9bb7bdca249b46594225091614f3c565b5060408051808201909152601281527f636c6f7365642d706169642d7365637265740000000000000000000000000000602080830191825260066000526003905290516115eb917fc69056f16cbaa3c616b828e333ab7d3a32310765507f8f58359e99ebb7a885f3915b828054614f4890615545565b90600052602060002090601f016020900481019282614f6a5760008555614fb0565b82601f10614f8357805160ff1916838001178555614fb0565b82800160010185558215614fb0579182015b82811115614fb0578251825591602001919060010190614f95565b50614fbc929150615015565b5090565b828054828255906000526020600020908101928215614fb0579160200282015b82811115614fb05782518254600160a060020a031916600160a060020a03909116178255602090920191600190910190614fe0565b5b80821115614fbc5760008155600101615016565b60e060020a634e487b7102600052604160045260246000fd5b604051601f8201601f1916810167ffffffffffffffff8111828210171561506c5761506c61502a565b604052919050565b600082601f83011261508557600080fd5b813567ffffffffffffffff81111561509f5761509f61502a565b6150b2601f8201601f1916602001615043565b8181528460208386010111156150c757600080fd5b816020850160208301376000918101602001919091529392505050565b6000602082840312156150f657600080fd5b813567ffffffffffffffff81111561510d57600080fd5b61511984828501615074565b949350505050565b6020808252825182820181905260009190848201906040850190845b81811015615162578351600160a060020a03168352928401929184019160010161513d565b50909695505050505050565b8035600160a060020a038116811461518557600080fd5b919050565b6000806040838503121561519d57600080fd5b6151a68361516e565b9150602083013567ffffffffffffffff8111156151c257600080fd5b6151ce85828601615074565b9150509250929050565b60005b838110156151f35781810151838201526020016151db565b83811115615202576000848401525b50505050565b600081518084526152208160208601602086016151d8565b601f01601f19169290920160200192915050565b6020815260008251610160806020850152615253610180850183615208565b9150602085015160408501526040850151601f1985840301606086015261527a8382615208565b92505060608501516152976080860182600160a060020a03169052565b50608085015160a085015260a085015160c085015260c085015160e085015260e08501516101006152cb8187018315159052565b8601516101208681019190915286015190506101406152f481870183600160a060020a03169052565b90950151151593019290925250919050565b60008060008060008060c0878903121561531f57600080fd5b863567ffffffffffffffff8082111561533757600080fd5b6153438a838b01615074565b975060209150818901358181111561535a57600080fd5b6153668b828c01615074565b97505060408901358181111561537b57600080fd5b8901601f81018b1361538c57600080fd5b80358281111561539e5761539e61502a565b83810292506153ae848401615043565b818152928201840192848101908d8511156153c857600080fd5b928501925b848410156153ed576153de8461516e565b825292850192908501906153cd565b9a9d999c50999a60608101359a5060808101359960a09091013598509650505050505050565b60006020828403121561542557600080fd5b61542e8261516e565b9392505050565b6020815281516020820152600160a060020a0360208301511660408201526000604083015160e0606084015261546f610100840182615208565b90506060840151151560808401526080840151151560a084015260a0840151151560c084015260c084015160e08401528091505092915050565b602081528151602082015260006020830151608060408401526154cf60a0840182615208565b9050600160a060020a036040850151166060840152606084015160808401528091505092915050565b6000806040838503121561550b57600080fd5b82359150602083013567ffffffffffffffff8111156151c257600080fd5b6000825161553b8184602087016151d8565b9190910192915050565b60028104600182168061555957607f821691505b6020821081141561557d5760e060020a634e487b7102600052602260045260246000fd5b50919050565b60208082526018908201527f546869732069732061205365637265742042616c6c6f74210000000000000000604082015260600190565b60e060020a634e487b7102600052601160045260246000fd5b6000828210156155e5576155e56155ba565b500390565b60008261560a5760e060020a634e487b7102600052601260045260246000fd5b500490565b60e060020a634e487b7102600052603260045260246000fd5b600060001982141561563c5761563c6155ba565b5060010190565b60008219821115615656576156566155ba565b500190565b60208152600061542e6020830184615208565b6000816000190483118215151615615688576156886155ba565b500290565b6020808252601a908201527f4572726f7220566f74657220526567697374726174696f6e212100000000000060408201526060019056fea26469706673582212203de30666e7fe3f04beabb5fe64bed1fb0158f9479647b00a480e0f162aaa080a64736f6c63430008090033",
  "immutableReferences": {},
  "source": "// SPDX-License-Identifier: UNLICENSED\n\npragma solidity 0.8.9;\n\nimport \"../interfaces/IJamiiFactory.sol\";\nimport \"./JamiiBase.sol\";\nimport \"./Utils.sol\";\n\ncontract JamiiFactory is IJamiiFactory, JamiiBase, Utils {\n    Ballot[] private ballots;\n    Voter[] private voters;\n\n    // numbers\n    // uint256 private ballot_fee = 340000000000000000; // $\n    uint256 private ballot_fee = 10000000000000000; // $\n    uint256 private ballot_count;\n    uint256[] private voter_ids;\n    uint256[] internal ballot_types_arr = [0, 1, 2, 3, 4];\n    uint256 internal ballot_types = ballot_types_arr.length;\n\n    // mappings\n    mapping(string => Ballot) private id_to_ballot_mapping;\n    mapping(string => address[]) private ballot_candidate_mapping;\n    mapping(string => address[]) private ballot_voters_mapping;\n    mapping(address => Candidate) private address_to_candidate_mapping;\n    mapping(address => Voter) private address_to_voter_mapping;\n    mapping(address => string[]) private voter_to_ballots;\n    mapping(address => string[]) private voted_to_ballots;\n    mapping(uint256 => string[]) private voter_id_to_ballots;\n\n    modifier only_voter(address _candidate, string memory _ballot_id) {\n        Ballot memory ballot = id_to_ballot_mapping[_ballot_id];\n        require(\n            address_to_voter_mapping[msg.sender].registered == true && // voter is registered\n                !exists(voted_to_ballots[msg.sender], _ballot_id) && // voted has NOT voted\n                compare_strings(\n                    id_to_ballot_mapping[_ballot_id].ballot_id,\n                    _ballot_id\n                ) ==\n                true && // ballot_id is valid\n                ballot.expired == false && // ballot still open\n                compare_strings(\n                    address_to_candidate_mapping[_candidate].ballot_id,\n                    _ballot_id\n                ) ==\n                true, // candidate exists in ballot\n            \"Voter Error!\"\n        );\n        _;\n    }\n\n    modifier only_voter_closed_ballots(\n        address _candidate,\n        string memory _ballot_id\n    ) {\n        Ballot memory ballot = id_to_ballot_mapping[_ballot_id];\n        Voter memory voter = address_to_voter_mapping[msg.sender];\n        require(\n            voter.rights == true && // voter has voting rights\n                address_to_voter_mapping[msg.sender].registered == true && // voter is registered\n                !exists(voted_to_ballots[msg.sender], _ballot_id) && // voter has NOT voted\n                compare_strings(\n                    id_to_ballot_mapping[_ballot_id].ballot_id,\n                    _ballot_id\n                ) ==\n                true && // ballot_id is valid\n                compare_strings(\n                    address_to_candidate_mapping[_candidate].ballot_id,\n                    _ballot_id\n                ) ==\n                true, // candidate exists in ballot\n            \"Voter Error(Closed Ballot)!\"\n        );\n        _;\n    }\n\n    modifier only_secret_ballot(string memory _ballot_id) {\n        Ballot memory ballot = id_to_ballot_mapping[_ballot_id];\n        require(ballot.ballot_type < 3, \"This is a Secret Ballot!\");\n        _;\n    }\n\n    modifier only_register_voter(uint256 _id_number, string memory _ballot_id) {\n        Ballot memory ballot = id_to_ballot_mapping[_ballot_id];\n        uint256 duration = (block.timestamp - ballot.open_date);\n        uint256 n = ballots.length;\n        require(\n            n >= 1 && // ballot exists\n                duration < (ballot._days * 86400) && // ballot NOT expired\n                !exists(voter_to_ballots[msg.sender], _ballot_id) && // NOT yet registered(address)\n                !exists(voter_id_to_ballots[_id_number], _ballot_id) && // NOT yet registered(id_number)\n                duration < (ballot.registration_window * 86400), // registration still Open\n            \"Error Voter Registration!!\"\n        );\n        _;\n    }\n\n    function initialize(string memory _arbitrary_text) public initializer {\n        JamiiBase.initialize();\n    }\n\n    function create_ballot_type(\n        uint256 _ballot_type,\n        string memory _ballot_name\n    ) public onlyOwner {\n        require(\n            _ballot_type > (ballot_types - 1) &&\n                _ballot_type < (ballot_types + 1),\n            \"Invalid Type Index!\"\n        );\n        ballot_types_arr.push(ballot_types + 1);\n        ballot_types_mapping[_ballot_type] = _ballot_name;\n    }\n\n    function create_ballot(\n        string memory _ballot_id,\n        string memory _ballot_name,\n        address[] memory _ballot_candidates_addr,\n        uint256 _ballot_type,\n        uint256 _days,\n        uint256 _registration_period\n    ) public payable {\n        bytes memory bytes_ballot_name = bytes(_ballot_name);\n        require(\n            msg.value >= ballot_fee && // make sure funds are enough\n                bytes_ballot_name.length > 0 && // Valid ballot name\n                _ballot_candidates_addr.length > 1 && // > 2 ballot candidates\n                _ballot_type <= ballot_types && // valid ballot type\n                _days > _registration_period && // invalid dates\n                _registration_period > 0, // invalid registration period\n            \"Error Ballot Creation!\"\n        );\n\n        ballot_candidate_mapping[_ballot_id] = _ballot_candidates_addr;\n\n        uint256 n = _ballot_candidates_addr.length;\n        for (uint256 i = 0; i < n; i++) {\n            Candidate memory candidate = Candidate(\n                candidates_count,\n                _ballot_id,\n                _ballot_candidates_addr[i],\n                0\n            );\n            address_to_candidate_mapping[\n                _ballot_candidates_addr[i]\n            ] = candidate;\n            candidates_count++;\n        }\n\n        Ballot memory new_ballot = Ballot(\n            _ballot_id,\n            _ballot_type,\n            _ballot_name,\n            msg.sender,\n            0,\n            block.timestamp,\n            _days,\n            false,\n            _registration_period,\n            address(0x0),\n            false\n        );\n        id_to_ballot_mapping[_ballot_id] = new_ballot;\n        ballots.push(new_ballot);\n        ballot_count++;\n\n        emit created_ballot(_ballot_type);\n    }\n\n    // createBallot(_ballot_candidates)\n    // ballot 0 -> [\"0xf9d48aC9eC8F207AEF93518B51D2CdA61e596904\", \"0x6c0A17AEe0a1420583446B77f0c8a55e369Bb07e\"]\n    // ballot 1 -> [\"0xa8d17cc9cAF29Af964d19267DDEb4dfF122697B0\",\"0xA0341558519429f6A93475bA53AD319f99302bff\"]\n    // ballot 2 -> [\"0x4A4eC531A0c952d76fdb0E1DC9561A893Cc3177c\", \"0xfA5C1650946124cB9ACBe478e6D37b5F6c1983D6\"]\n    // ballot 3 -> [\"0x7ffC57839B00206D1ad20c69A1981b489f772031\", \"0x8E9a9f198d9d6457339A11b05A214F9aa78dbc8b\"]\n    // ballot 4 -> [\"0xfA5C1650946124cB9ACBe478e6D37b5F6c1983D6\", \"0xfe3e6ab5d787f4099478bbe811a740d903e219fb\"]\n    // ballot 5 -> ballot 0\n    // ballot 6 -> ballot 1\n\n    /** REGISTERS VOTERS **/\n\n    function create_voter_open_ballot(\n        uint256 _id_number,\n        string memory _ballot_id\n    ) internal returns (bytes32) {\n        Ballot storage ballot = id_to_ballot_mapping[_ballot_id];\n\n        ballot_voters_mapping[_ballot_id].push(msg.sender);\n\n        // id_number validation here\n        bytes32 unique_voter_id = keccak256(abi.encode(_id_number));\n        Voter memory new_voter = Voter(\n            ballot.voters_count,\n            msg.sender,\n            _ballot_id,\n            true,\n            true,\n            false,\n            unique_voter_id\n        );\n        address_to_voter_mapping[msg.sender] = new_voter;\n        voters.push(new_voter);\n\n        id_to_ballot_mapping[_ballot_id].voters_count++;\n\n        voter_to_ballots[msg.sender].push(_ballot_id);\n        voter_id_to_ballots[_id_number].push(_ballot_id);\n\n        emit registered_voter(unique_voter_id);\n\n        return unique_voter_id;\n    }\n\n    function create_voter_closed_ballot(\n        uint256 _id_number,\n        string memory _ballot_id\n    ) internal returns (bytes32) {\n        Ballot storage ballot = id_to_ballot_mapping[_ballot_id];\n\n        ballot_voters_mapping[_ballot_id].push(msg.sender);\n\n        // id_number validation here\n        bytes32 unique_voter_id = keccak256(abi.encode(_id_number));\n\n        Voter memory new_voter = Voter(\n            ballot.voters_count,\n            msg.sender,\n            _ballot_id,\n            true,\n            false,\n            false,\n            unique_voter_id\n        );\n        address_to_voter_mapping[msg.sender] = new_voter;\n        voters.push(new_voter);\n\n        id_to_ballot_mapping[_ballot_id].voters_count++;\n\n        voter_to_ballots[msg.sender].push(_ballot_id);\n        voter_id_to_ballots[_id_number].push(_ballot_id);\n\n        emit registered_voter(unique_voter_id);\n\n        return unique_voter_id;\n    }\n\n    function register_voter_open_ballot(\n        uint256 _id_number,\n        string memory _ballot_id\n    ) internal only_register_voter(_id_number, _ballot_id) returns (bytes32) {\n        bytes32 unique_voter_id = create_voter_open_ballot(\n            _id_number,\n            _ballot_id\n        );\n        return unique_voter_id;\n    }\n\n    function register_voter_closed_ballot(\n        uint256 _id_number,\n        string memory _ballot_id\n    ) internal only_register_voter(_id_number, _ballot_id) returns (bytes32) {\n        // require(\"You need to lock value in the Ballot! -> redistributed after ballot!\");\n        bytes32 unique_voter_id = create_voter_closed_ballot(\n            _id_number,\n            _ballot_id\n        );\n        return unique_voter_id;\n    }\n\n    function register_voter(uint256 _id_number, string memory _ballot_id)\n        public\n        only_register_voter(_id_number, _ballot_id)\n        returns (bytes32)\n    {\n        Ballot memory ballot = id_to_ballot_mapping[_ballot_id];\n\n        // 0, 1, 2, 3 -> open, closed, open secret, closed secret,\n        if (ballot.ballot_type == 0 || ballot.ballot_type == 2) {\n            bytes32 unique_voter_id = register_voter_open_ballot(\n                _id_number,\n                _ballot_id\n            );\n            return unique_voter_id;\n        } else if (ballot.ballot_type == 1 || ballot.ballot_type == 3) {\n            bytes32 unique_voter_id = register_voter_closed_ballot(\n                _id_number,\n                _ballot_id\n            );\n            return unique_voter_id;\n        }\n    }\n\n    /** VOTING RIGHTS **/\n    function assign_voting_rights(address _voter, string memory _ballot_id)\n        public\n    {\n        Ballot memory ballot = id_to_ballot_mapping[_ballot_id];\n        uint256 _ballot_type = ballot.ballot_type;\n\n        require(\n            (msg.sender == ballot.chair && // check permissions\n                ballot.voters_count >= 1 && // ballot is valid\n                ballot.expired == false && // balot is Open\n                compare_strings(\n                    address_to_voter_mapping[_voter].ballot_id,\n                    _ballot_id\n                ) ==\n                true && // voter is registered in ballot\n                address_to_voter_mapping[_voter].registered == true && // voter is registered voter\n                address_to_voter_mapping[_voter].rights == false && // voter does NOT have voting rights\n                _ballot_type == 1) || _ballot_type == 3, // ballot is closed-paid ballot\n            \"Error Assigning Voting Rights!\"\n        );\n        // closed paid ballot [3]\n        // require voter has sufficient voting tokens for a ballot -> buy voting rights -> awaiting approval\n        address_to_voter_mapping[_voter].rights = true;\n\n        emit assigned_voting_rights(_voter);\n    }\n\n    // function buy_voting_rights(){ }\n\n    function create_vote(address _candidate) internal {\n        address_to_candidate_mapping[_candidate].vote_count++;\n        address_to_voter_mapping[msg.sender].voted = true;\n        emit voted(_candidate);\n    }\n\n    function vote_open_ballot(address _candidate, string memory _ballot_id)\n        internal\n        only_voter(_candidate, _ballot_id)\n    {\n        // require(\"Need to have locked value in ballot during registration!\")\n\n        Ballot memory ballot = id_to_ballot_mapping[_ballot_id];\n        ballot.current_winner = _candidate;\n        find_winner(_candidate, ballot);\n        create_vote(_candidate);\n    }\n\n    function vote_closed_ballot(address _candidate, string memory _ballot_id)\n        internal\n        only_voter_closed_ballots(_candidate, _ballot_id)\n    {\n        Ballot memory ballot = id_to_ballot_mapping[_ballot_id];\n        require(ballot.ballot_type == 1, \"Wrong Ballot Type!\");\n        // require(\"Need to have locked value in ballot during registration!\")\n\n        ballot.current_winner = _candidate;\n        find_winner(_candidate, ballot);\n        create_vote(_candidate);\n    }\n\n    function vote(address _candidate, string memory _ballot_id)\n        public\n        only_voter(_candidate, _ballot_id)\n    {\n        Ballot memory ballot = id_to_ballot_mapping[_ballot_id];\n\n        // 0, 1, 2, 3, 4, 5, 6 => open free, closed free, open paid, closed paid,\n        if (ballot.ballot_type == 0) {\n            vote_open_ballot(_candidate, _ballot_id);\n        } else if (ballot.ballot_type == 1) {\n            vote_closed_ballot(_candidate, _ballot_id);\n        }\n        voted_to_ballots[msg.sender].push(_ballot_id);\n    }\n\n    /** GETTERS **/\n    function get_ballot(string memory _ballot_id)\n        public\n        view\n        only_secret_ballot(_ballot_id)\n        returns (Ballot memory)\n    {\n        return id_to_ballot_mapping[_ballot_id];\n    }\n\n    function get_candidate(address _candidate_addr)\n        public\n        view\n        only_secret_ballot(\"\")\n        returns (Candidate memory)\n    {\n        return address_to_candidate_mapping[_candidate_addr];\n    }\n\n    function get_voter(address _voter_address)\n        public\n        view\n        only_secret_ballot(\"\")\n        returns (Voter memory)\n    {\n        return address_to_voter_mapping[_voter_address];\n    }\n\n    function get_candidates(string memory _ballot_id)\n        public\n        view\n        returns (address[] memory)\n    {\n        return ballot_candidate_mapping[_ballot_id];\n    }\n\n    function get_voters(string memory _ballot_id)\n        public\n        view\n        only_secret_ballot(_ballot_id)\n        returns (address[] memory)\n    {\n        return ballot_voters_mapping[_ballot_id];\n    }\n\n    function find_winner(address _candidate, Ballot memory ballot)\n        internal\n        view\n        returns (bool)\n    {\n        if (\n            address_to_candidate_mapping[_candidate].vote_count + 1 >\n            address_to_candidate_mapping[ballot.current_winner].vote_count\n        ) {\n            ballot.current_winner = _candidate;\n            ballot.tie = false;\n        } else if (\n            address_to_candidate_mapping[_candidate].vote_count + 1 ==\n            address_to_candidate_mapping[ballot.current_winner].vote_count\n        ) {\n            ballot.tie = true;\n        }\n        return ballot.tie;\n    }\n\n    function get_winner(string memory _ballot_id)\n        public\n        only_secret_ballot(_ballot_id)\n        returns (address)\n    {\n        Ballot memory ballot = id_to_ballot_mapping[_ballot_id];\n        uint256 duration = (block.timestamp - ballot.open_date) / 60 / 60 / 24;\n\n        require(\n            id_to_ballot_mapping[_ballot_id].current_winner != address(0x0) &&\n                duration > ballot._days,\n            \"Error Getting Winner!!\"\n        );\n        // require(\n        //     id_to_ballot_mapping[_ballot_id].current_winner != address(0x0),\n        //     \"No Such Ballot Exists!\"\n        // );\n\n        // require(duration > ballot._days, \"This Ballot is NOT yet Expired!\");\n\n        if (ballot.tie == true) {\n            emit tied_ballot(ballot.tie);\n            return address(0x0);\n        } else {\n            address winner = ballot.current_winner;\n            return winner;\n        }\n    }\n\n    function end_ballot(string memory _ballot_id) public {\n        Ballot storage ballot = id_to_ballot_mapping[_ballot_id];\n\n        uint256 duration = (block.timestamp - ballot.open_date) / 60 / 60 / 24;\n        require(\n            duration < ballot._days && msg.sender == ballot.chair,\n            \"Error Ending Ballot!!\"\n        );\n        // require(duration < ballot._days, \"This Ballot is NOT yet Expired!\");\n\n        // require(msg.sender == ballot.chair, \"Insufficient Permissions!\");\n\n        ballot.expired = true;\n        id_to_ballot_mapping[_ballot_id].expired = true;\n\n        emit ended_ballot(_ballot_id);\n    }\n\n    function withdraw() public onlyOwner {\n        payable(fee_addr).transfer(address(this).balance);\n    }\n}\n",
  "sourcePath": "/home/lumunge/Documents/WEB3/EthereumBoilers/ethereum-nextjs-boilerplate/Truffle/contracts/JamiiFactory.sol",
  "compiler": {
    "name": "solc",
    "version": "0.8.9+commit.e5eed63a.Emscripten.clang"
  },
  "schemaVersion": "3.4.9",
  "updatedAt": "2022-08-23T09:13:54.150Z",
  "networkType": "ethereum",
  "devdoc": {
    "kind": "dev",
    "methods": {
      "owner()": {
        "details": "Returns the address of the current owner."
      },
      "renounceOwnership()": {
        "details": "Leaves the contract without owner. It will not be possible to call `onlyOwner` functions anymore. Can only be called by the current owner. NOTE: Renouncing ownership will leave the contract without an owner, thereby removing any functionality that is only available to the owner."
      },
      "transferOwnership(address)": {
        "details": "Transfers ownership of the contract to a new account (`newOwner`). Can only be called by the current owner."
      }
    },
    "version": 1
  },
  "userdoc": {
    "kind": "user",
    "methods": {
      "assign_voting_rights(address,string)": {
        "notice": "VOTING RIGHTS *"
      },
      "get_ballot(string)": {
        "notice": "GETTERS *"
      }
    },
    "version": 1
  }
}