{
  "contractName": "MetaCoin",
  "abi": [
    {
      "inputs": [],
      "stateMutability": "nonpayable",
      "type": "constructor"
    },
    {
      "anonymous": false,
      "inputs": [
        {
          "indexed": true,
          "internalType": "address",
          "name": "_from",
          "type": "address"
        },
        {
          "indexed": true,
          "internalType": "address",
          "name": "_to",
          "type": "address"
        },
        {
          "indexed": false,
          "internalType": "uint256",
          "name": "_value",
          "type": "uint256"
        }
      ],
      "name": "Transfer",
      "type": "event"
    },
    {
      "inputs": [],
      "name": "name",
      "outputs": [
        {
          "internalType": "string",
          "name": "",
          "type": "string"
        }
      ],
      "stateMutability": "view",
      "type": "function",
      "constant": true
    },
    {
      "inputs": [
        {
          "internalType": "address",
          "name": "receiver",
          "type": "address"
        },
        {
          "internalType": "uint256",
          "name": "amount",
          "type": "uint256"
        }
      ],
      "name": "sendCoin",
      "outputs": [
        {
          "internalType": "bool",
          "name": "sufficient",
          "type": "bool"
        }
      ],
      "stateMutability": "nonpayable",
      "type": "function"
    },
    {
      "inputs": [
        {
          "internalType": "address",
          "name": "receiver",
          "type": "address"
        },
        {
          "internalType": "uint256",
          "name": "amount",
          "type": "uint256"
        }
      ],
      "name": "faucetCoin",
      "outputs": [
        {
          "internalType": "bool",
          "name": "sufficient",
          "type": "bool"
        }
      ],
      "stateMutability": "nonpayable",
      "type": "function"
    },
    {
      "inputs": [
        {
          "internalType": "address",
          "name": "addr",
          "type": "address"
        }
      ],
      "name": "getBalanceInEth",
      "outputs": [
        {
          "internalType": "uint256",
          "name": "",
          "type": "uint256"
        }
      ],
      "stateMutability": "view",
      "type": "function",
      "constant": true
    },
    {
      "inputs": [
        {
          "internalType": "address",
          "name": "addr",
          "type": "address"
        }
      ],
      "name": "getBalance",
      "outputs": [
        {
          "internalType": "uint256",
          "name": "",
          "type": "uint256"
        }
      ],
      "stateMutability": "view",
      "type": "function",
      "constant": true
    }
  ],
  "bytecode": "0x60c0604052600e60808190527f5465737420436f696e204e69636500000000000000000000000000000000000060a090815261003e9160019190610065565b5034801561004b57600080fd5b503260009081526020819052604090206127109055610152565b828054610071906100fe565b90600052602060002090601f01602090048101928261009357600085556100d9565b82601f106100ac57805160ff19168380011785556100d9565b828001600101855582156100d9579182015b828111156100d95782518255916020019190600101906100be565b506100e59291506100e9565b5090565b5b808211156100e557600081556001016100ea565b60028104600182168061011257607f821691505b6020821081141561014c577f4e487b7100000000000000000000000000000000000000000000000000000000600052602260045260246000fd5b50919050565b610546806101616000396000f3fe608060405234801561001057600080fd5b5060043610610073577c0100000000000000000000000000000000000000000000000000000000600035046306fdde0381146100785780636c18bdee146100965780637bd703e8146100b957806390b98a11146100da578063f8b2cb4f146100ed575b600080fd5b610080610123565b60405161008d919061037b565b60405180910390f35b6100a96100a43660046103f9565b6101b1565b604051901515815260200161008d565b6100cc6100c7366004610423565b61022e565b60405190815260200161008d565b6100a96100e83660046103f9565b610303565b6100cc6100fb366004610423565b73ffffffffffffffffffffffffffffffffffffffff1660009081526020819052604090205490565b6001805461013090610445565b80601f016020809104026020016040519081016040528092919081815260200182805461015c90610445565b80156101a95780601f1061017e576101008083540402835291602001916101a9565b820191906000526020600020905b81548152906001019060200180831161018c57829003601f168201915b505050505081565b336000908152602081905260408120805483919083906101d29084906104c8565b909155505060405182815273ffffffffffffffffffffffffffffffffffffffff84169033907fddf252ad1be2c89b69c2b068fc378daa952ba7f163c4a11628f55a4df523b3ef9060200160405180910390a35060015b92915050565b600073__ConvertLib____________________________6396e4ee3d6102768473ffffffffffffffffffffffffffffffffffffffff1660009081526020819052604090205490565b6040517c010000000000000000000000000000000000000000000000000000000063ffffffff841602815260048101919091526002602482015260440160206040518083038186803b1580156102cb57600080fd5b505af41580156102df573d6000803e3d6000fd5b505050506040513d601f19601f8201168201806040525081019061022891906104e0565b3360009081526020819052604081205482111561032257506000610228565b33600090815260208190526040812080548492906103419084906104f9565b909155505073ffffffffffffffffffffffffffffffffffffffff8316600090815260208190526040812080548492906101d29084906104c8565b600060208083528351808285015260005b818110156103a85785810183015185820160400152820161038c565b818111156103ba576000604083870101525b50601f01601f1916929092016040019392505050565b803573ffffffffffffffffffffffffffffffffffffffff811681146103f457600080fd5b919050565b6000806040838503121561040c57600080fd5b610415836103d0565b946020939093013593505050565b60006020828403121561043557600080fd5b61043e826103d0565b9392505050565b60028104600182168061045957607f821691505b60208210811415610493577f4e487b7100000000000000000000000000000000000000000000000000000000600052602260045260246000fd5b50919050565b7f4e487b7100000000000000000000000000000000000000000000000000000000600052601160045260246000fd5b600082198211156104db576104db610499565b500190565b6000602082840312156104f257600080fd5b5051919050565b60008282101561050b5761050b610499565b50039056fea26469706673582212203a8a3ca1b489fcd843a810dee4fc6a1613682a2b595760504d6acb6d041d129a64736f6c63430008090033",
  "immutableReferences": {},
  "source": "// SPDX-License-Identifier: MIT\npragma solidity 0.8.9;\n\nimport \"./ConvertLib.sol\";\n\n// This is just a simple example of a coin-like contract.\n// It is not standards compatible and cannot be expected to talk to other\n// coin/token contracts. If you want to create a standards-compliant\n// token, see: https://github.com/ConsenSys/Tokens. Cheers!\n\ncontract MetaCoin {\n    mapping(address => uint256) balances;\n\n    event Transfer(address indexed _from, address indexed _to, uint256 _value);\n\n    constructor() public {\n        balances[tx.origin] = 10000;\n    }\n\n    string public name = \"Test Coin Nice\";\n\n    function sendCoin(address receiver, uint256 amount)\n        public\n        returns (bool sufficient)\n    {\n        if (balances[msg.sender] < amount) return false;\n        balances[msg.sender] -= amount;\n        balances[receiver] += amount;\n        emit Transfer(msg.sender, receiver, amount);\n        return true;\n    }\n\n    function faucetCoin(address receiver, uint256 amount)\n        public\n        returns (bool sufficient)\n    {\n        balances[msg.sender] += amount;\n        emit Transfer(msg.sender, receiver, amount);\n        return true;\n    }\n\n    function getBalanceInEth(address addr) public view returns (uint256) {\n        return ConvertLib.convert(getBalance(addr), 2);\n    }\n\n    function getBalance(address addr) public view returns (uint256) {\n        return balances[addr];\n    }\n}\n",
  "sourcePath": "/home/lumunge/Documents/WEB3/EthereumBoilers/ethereum-nextjs-boilerplate/Truffle/contracts/MetaCoin.sol",
  "compiler": {
    "name": "solc",
    "version": "0.8.9+commit.e5eed63a.Emscripten.clang"
  },
  "schemaVersion": "3.4.9",
  "updatedAt": "2022-08-23T09:13:52.584Z",
  "networkType": "ethereum",
  "devdoc": {
    "kind": "dev",
    "methods": {},
    "version": 1
  },
  "userdoc": {
    "kind": "user",
    "methods": {},
    "version": 1
  }
}